{
  "contractName": "Messenger",
  "abi": [
    {
      "inputs": [
        {
          "internalType": "address[]",
          "name": "_owners",
          "type": "address[]"
        },
        {
          "internalType": "uint256",
          "name": "_numOfApprov",
          "type": "uint256"
        }
      ],
      "stateMutability": "nonpayable",
      "type": "constructor"
    },
    {
      "inputs": [],
      "name": "cur_owner",
      "outputs": [
        {
          "internalType": "address payable",
          "name": "",
          "type": "address"
        }
      ],
      "stateMutability": "view",
      "type": "function"
    },
    {
      "inputs": [],
      "name": "numOfApprov",
      "outputs": [
        {
          "internalType": "uint256",
          "name": "",
          "type": "uint256"
        }
      ],
      "stateMutability": "view",
      "type": "function"
    },
    {
      "inputs": [
        {
          "internalType": "uint256",
          "name": "",
          "type": "uint256"
        }
      ],
      "name": "owners",
      "outputs": [
        {
          "internalType": "address",
          "name": "",
          "type": "address"
        }
      ],
      "stateMutability": "view",
      "type": "function"
    },
    {
      "inputs": [],
      "name": "getOwners",
      "outputs": [
        {
          "internalType": "address[]",
          "name": "",
          "type": "address[]"
        }
      ],
      "stateMutability": "view",
      "type": "function"
    },
    {
      "inputs": [],
      "name": "getMessages",
      "outputs": [
        {
          "internalType": "string[]",
          "name": "",
          "type": "string[]"
        }
      ],
      "stateMutability": "view",
      "type": "function"
    },
    {
      "inputs": [
        {
          "internalType": "address",
          "name": "_recipient",
          "type": "address"
        },
        {
          "internalType": "string",
          "name": "_message",
          "type": "string"
        }
      ],
      "name": "sendMessage",
      "outputs": [],
      "stateMutability": "nonpayable",
      "type": "function"
    },
    {
      "inputs": [],
      "name": "readMessage",
      "outputs": [],
      "stateMutability": "nonpayable",
      "type": "function"
    },
    {
      "inputs": [],
      "name": "getContractAddress",
      "outputs": [
        {
          "internalType": "address",
          "name": "",
          "type": "address"
        }
      ],
      "stateMutability": "view",
      "type": "function"
    },
    {
      "inputs": [],
      "name": "deposit",
      "outputs": [],
      "stateMutability": "payable",
      "type": "function"
    },
    {
      "inputs": [],
      "name": "withdraw",
      "outputs": [],
      "stateMutability": "nonpayable",
      "type": "function"
    },
    {
      "inputs": [],
      "name": "getBalance",
      "outputs": [
        {
          "internalType": "uint256",
          "name": "",
          "type": "uint256"
        }
      ],
      "stateMutability": "view",
      "type": "function"
    },
    {
      "inputs": [],
      "name": "recover",
      "outputs": [
        {
          "internalType": "address",
          "name": "",
          "type": "address"
        }
      ],
      "stateMutability": "nonpayable",
      "type": "function"
    },
    {
      "inputs": [
        {
          "internalType": "string",
          "name": "a",
          "type": "string"
        },
        {
          "internalType": "string",
          "name": "b",
          "type": "string"
        }
      ],
      "name": "compareTo",
      "outputs": [
        {
          "internalType": "bool",
          "name": "",
          "type": "bool"
        }
      ],
      "stateMutability": "pure",
      "type": "function"
    },
    {
      "inputs": [
        {
          "internalType": "address payable",
          "name": "_to",
          "type": "address"
        },
        {
          "internalType": "uint256",
          "name": "_amount",
          "type": "uint256"
        }
      ],
      "name": "transfer",
      "outputs": [],
      "stateMutability": "nonpayable",
      "type": "function"
    }
  ],
  "bytecode": "0x60806040523480156200001157600080fd5b5060405162001d1a38038062001d1a833981810160405281019062000037919062000333565b60008251116200007e576040517f08c379a0000000000000000000000000000000000000000000000000000000008152600401620000759062000402565b60405180910390fd5b60008111801562000090575081518111155b620000d2576040517f08c379a0000000000000000000000000000000000000000000000000000000008152600401620000c99062000424565b60405180910390fd5b60005b8251811015620002535760008382815181106200011b577f4e487b7100000000000000000000000000000000000000000000000000000000600052603260045260246000fd5b60200260200101519050600073ffffffffffffffffffffffffffffffffffffffff168173ffffffffffffffffffffffffffffffffffffffff16141562000198576040517f08c379a00000000000000000000000000000000000000000000000000000000081526004016200018f9062000446565b60405180910390fd5b33600160006101000a81548173ffffffffffffffffffffffffffffffffffffffff021916908373ffffffffffffffffffffffffffffffffffffffff1602179055506000819080600181540180825580915050600190039060005260206000200160009091909190916101000a81548173ffffffffffffffffffffffffffffffffffffffff021916908373ffffffffffffffffffffffffffffffffffffffff1602179055505080806200024a9062000545565b915050620000d5565b50806006819055505050620006b1565b60006200027a620002748462000491565b62000468565b905080838252602082019050828560208602820111156200029a57600080fd5b60005b85811015620002ce5781620002b38882620002d8565b8452602084019350602083019250506001810190506200029d565b5050509392505050565b600081519050620002e9816200067d565b92915050565b600082601f8301126200030157600080fd5b81516200031384826020860162000263565b91505092915050565b6000815190506200032d8162000697565b92915050565b600080604083850312156200034757600080fd5b600083015167ffffffffffffffff8111156200036257600080fd5b6200037085828601620002ef565b925050602062000383858286016200031c565b9150509250929050565b60006200039c600f83620004c0565b9150620003a98262000602565b602082019050919050565b6000620003c3601d83620004c0565b9150620003d0826200062b565b602082019050919050565b6000620003ea600d83620004c0565b9150620003f78262000654565b602082019050919050565b600060208201905081810360008301526200041d816200038d565b9050919050565b600060208201905081810360008301526200043f81620003b4565b9050919050565b600060208201905081810360008301526200046181620003db565b9050919050565b60006200047462000487565b90506200048282826200050f565b919050565b6000604051905090565b600067ffffffffffffffff821115620004af57620004ae620005c2565b5b602082029050602081019050919050565b600082825260208201905092915050565b6000620004de82620004e5565b9050919050565b600073ffffffffffffffffffffffffffffffffffffffff82169050919050565b6000819050919050565b6200051a82620005f1565b810181811067ffffffffffffffff821117156200053c576200053b620005c2565b5b80604052505050565b6000620005528262000505565b91507fffffffffffffffffffffffffffffffffffffffffffffffffffffffffffffffff82141562000588576200058762000593565b5b600182019050919050565b7f4e487b7100000000000000000000000000000000000000000000000000000000600052601160045260246000fd5b7f4e487b7100000000000000000000000000000000000000000000000000000000600052604160045260246000fd5b6000601f19601f8301169050919050565b7f6e65656420736f6d652075736572730000000000000000000000000000000000600082015250565b7f6e6565642076616c6964206e756d626572206f6620617070726f76616c000000600082015250565b7f696e76616c6964206f776e657200000000000000000000000000000000000000600082015250565b6200068881620004d1565b81146200069457600080fd5b50565b620006a28162000505565b8114620006ae57600080fd5b50565b61165980620006c16000396000f3fe6080604052600436106100dd5760003560e01c80637d1a6e3f1161007f578063ce74602411610059578063ce7460241461028a578063d0e30db0146102b5578063de6f24bb146102bf578063fc57f987146102e8576100dd565b80637d1a6e3f146101f9578063a0e67e2b14610236578063a9059cbb14610261576100dd565b806332a2c5d0116100bb57806332a2c5d0146101615780633ccfd60b1461018c5780635ff6cbf3146101a357806364da25c7146101ce576100dd565b8063025e7c27146100e2578063031d5d011461011f57806312065fe014610136575b600080fd5b3480156100ee57600080fd5b5061010960048036038101906101049190610d82565b610313565b6040516101169190611034565b60405180910390f35b34801561012b57600080fd5b50610134610352565b005b34801561014257600080fd5b5061014b610527565b6040516101589190611159565b60405180910390f35b34801561016d57600080fd5b50610176610546565b6040516101839190611034565b60405180910390f35b34801561019857600080fd5b506101a161054e565b005b3480156101af57600080fd5b506101b861063c565b6040516101c591906110bc565b60405180910390f35b3480156101da57600080fd5b506101e3610752565b6040516101f09190611159565b60405180910390f35b34801561020557600080fd5b50610220600480360381019061021b9190610d16565b610758565b60405161022d91906110de565b60405180910390f35b34801561024257600080fd5b5061024b610773565b604051610258919061106a565b60405180910390f35b34801561026d57600080fd5b5061028860048036038101906102839190610c59565b610801565b005b34801561029657600080fd5b5061029f6108b2565b6040516102ac9190611034565b60405180910390f35b6102bd610a08565b005b3480156102cb57600080fd5b506102e660048036038101906102e19190610c95565b610a0a565b005b3480156102f457600080fd5b506102fd610a8a565b60405161030a919061104f565b60405180910390f35b6000818154811061032357600080fd5b906000526020600020016000915054906101000a900473ffffffffffffffffffffffffffffffffffffffff1681565b6000600260003373ffffffffffffffffffffffffffffffffffffffff1673ffffffffffffffffffffffffffffffffffffffff168152602001908152602001600020805480602002602001604051908101604052809291908181526020016000905b8282101561045f5783829060005260206000200180546103d2906113c5565b80601f01602080910402602001604051908101604052809291908181526020018280546103fe906113c5565b801561044b5780601f106104205761010080835404028352916020019161044b565b820191906000526020600020905b81548152906001019060200180831161042e57829003601f168201915b5050505050815260200190600101906103b3565b50505050905060005b8151811015610523576104f08282815181106104ad577f4e487b7100000000000000000000000000000000000000000000000000000000600052603260045260246000fd5b60200260200101516040518060400160405280600781526020017f7265636f76657200000000000000000000000000000000000000000000000000815250610758565b156105105760016003600082825461050891906112a1565b925050819055505b808061051b90611442565b915050610468565b5050565b60003073ffffffffffffffffffffffffffffffffffffffff1631905090565b600030905090565b60003073ffffffffffffffffffffffffffffffffffffffff163190506000600160009054906101000a900473ffffffffffffffffffffffffffffffffffffffff1673ffffffffffffffffffffffffffffffffffffffff16826040516105b29061101f565b60006040518083038185875af1925050503d80600081146105ef576040519150601f19603f3d011682016040523d82523d6000602084013e6105f4565b606091505b5050905080610638576040517f08c379a000000000000000000000000000000000000000000000000000000000815260040161062f906110f9565b60405180910390fd5b5050565b6060600260003073ffffffffffffffffffffffffffffffffffffffff1673ffffffffffffffffffffffffffffffffffffffff168152602001908152602001600020805480602002602001604051908101604052809291908181526020016000905b828210156107495783829060005260206000200180546106bc906113c5565b80601f01602080910402602001604051908101604052809291908181526020018280546106e8906113c5565b80156107355780601f1061070a57610100808354040283529160200191610735565b820191906000526020600020905b81548152906001019060200180831161071857829003601f168201915b50505050508152602001906001019061069d565b50505050905090565b60065481565b60008180519060200120838051906020012014905092915050565b606060008054806020026020016040519081016040528092919081815260200182805480156107f757602002820191906000526020600020905b8160009054906101000a900473ffffffffffffffffffffffffffffffffffffffff1673ffffffffffffffffffffffffffffffffffffffff16815260200190600101908083116107ad575b5050505050905090565b60008273ffffffffffffffffffffffffffffffffffffffff16826040516108279061101f565b60006040518083038185875af1925050503d8060008114610864576040519150601f19603f3d011682016040523d82523d6000602084013e610869565b606091505b50509050806108ad576040517f08c379a00000000000000000000000000000000000000000000000000000000081526004016108a490611119565b60405180910390fd5b505050565b60006108bc610352565b60065460035414610902576040517f08c379a00000000000000000000000000000000000000000000000000000000081526004016108f990611139565b60405180910390fd5b6000600760009054906101000a900473ffffffffffffffffffffffffffffffffffffffff1673ffffffffffffffffffffffffffffffffffffffff166335abdee860006006546040518363ffffffff1660e01b815260040161096492919061108c565b602060405180830381600087803b15801561097e57600080fd5b505af1158015610992573d6000803e3d6000fd5b505050506040513d601f19601f820116820180604052508101906109b69190610ced565b9050610a0181600460003073ffffffffffffffffffffffffffffffffffffffff1673ffffffffffffffffffffffffffffffffffffffff16815260200190815260200160002054610801565b8091505090565b565b600260008473ffffffffffffffffffffffffffffffffffffffff1673ffffffffffffffffffffffffffffffffffffffff168152602001908152602001600020828290918060018154018082558091505060019003906000526020600020016000909192909192909192909192509190610a84929190610ab0565b50505050565b600160009054906101000a900473ffffffffffffffffffffffffffffffffffffffff1681565b828054610abc906113c5565b90600052602060002090601f016020900481019282610ade5760008555610b25565b82601f10610af757803560ff1916838001178555610b25565b82800160010185558215610b25579182015b82811115610b24578235825591602001919060010190610b09565b5b509050610b329190610b36565b5090565b5b80821115610b4f576000816000905550600101610b37565b5090565b6000610b66610b6184611199565b611174565b905082815260208101848484011115610b7e57600080fd5b610b89848285611383565b509392505050565b600081359050610ba0816115c7565b92915050565b600081359050610bb5816115de565b92915050565b600081519050610bca816115f5565b92915050565b60008083601f840112610be257600080fd5b8235905067ffffffffffffffff811115610bfb57600080fd5b602083019150836001820283011115610c1357600080fd5b9250929050565b600082601f830112610c2b57600080fd5b8135610c3b848260208601610b53565b91505092915050565b600081359050610c538161160c565b92915050565b60008060408385031215610c6c57600080fd5b6000610c7a85828601610ba6565b9250506020610c8b85828601610c44565b9150509250929050565b600080600060408486031215610caa57600080fd5b6000610cb886828701610b91565b935050602084013567ffffffffffffffff811115610cd557600080fd5b610ce186828701610bd0565b92509250509250925092565b600060208284031215610cff57600080fd5b6000610d0d84828501610bbb565b91505092915050565b60008060408385031215610d2957600080fd5b600083013567ffffffffffffffff811115610d4357600080fd5b610d4f85828601610c1a565b925050602083013567ffffffffffffffff811115610d6c57600080fd5b610d7885828601610c1a565b9150509250929050565b600060208284031215610d9457600080fd5b6000610da284828501610c44565b91505092915050565b6000610db78383610de6565b60208301905092915050565b6000610dcf8383610f4b565b905092915050565b610de081611329565b82525050565b610def81611317565b82525050565b610dfe81611317565b82525050565b6000610e0f826111ff565b610e198185611252565b9350610e24836111ca565b8060005b83811015610e55578151610e3c8882610dab565b9750610e478361122b565b925050600181019050610e28565b5085935050505092915050565b6000610e6d8261120a565b610e778185611252565b9350610e82836111da565b8060005b83811015610eba57610e9782611518565b610ea18882610dab565b9750610eac83611238565b925050600181019050610e86565b5085935050505092915050565b6000610ed282611215565b610edc8185611263565b935083602082028501610eee856111ef565b8060005b85811015610f2a5784840389528151610f0b8582610dc3565b9450610f1683611245565b925060208a01995050600181019050610ef2565b50829750879550505050505092915050565b610f458161133b565b82525050565b6000610f5682611220565b610f60818561127f565b9350610f70818560208601611392565b610f798161152b565b840191505092915050565b6000610f91601483611290565b9150610f9c82611549565b602082019050919050565b6000610fb4600083611274565b9150610fbf82611572565b600082019050919050565b6000610fd7601583611290565b9150610fe282611575565b602082019050919050565b6000610ffa601283611290565b91506110058261159e565b602082019050919050565b61101981611379565b82525050565b600061102a82610fa7565b9150819050919050565b60006020820190506110496000830184610df5565b92915050565b60006020820190506110646000830184610dd7565b92915050565b600060208201905081810360008301526110848184610e04565b905092915050565b600060408201905081810360008301526110a68185610e62565b90506110b56020830184611010565b9392505050565b600060208201905081810360008301526110d68184610ec7565b905092915050565b60006020820190506110f36000830184610f3c565b92915050565b6000602082019050818103600083015261111281610f84565b9050919050565b6000602082019050818103600083015261113281610fca565b9050919050565b6000602082019050818103600083015261115281610fed565b9050919050565b600060208201905061116e6000830184611010565b92915050565b600061117e61118f565b905061118a8282611411565b919050565b6000604051905090565b600067ffffffffffffffff8211156111b4576111b36114e9565b5b6111bd8261152b565b9050602081019050919050565b6000819050602082019050919050565b60008190508160005260206000209050919050565b6000819050602082019050919050565b600081519050919050565b600081549050919050565b600081519050919050565b600081519050919050565b6000602082019050919050565b6000600182019050919050565b6000602082019050919050565b600082825260208201905092915050565b600082825260208201905092915050565b600081905092915050565b600082825260208201905092915050565b600082825260208201905092915050565b60006112ac82611379565b91506112b783611379565b9250827fffffffffffffffffffffffffffffffffffffffffffffffffffffffffffffffff038211156112ec576112eb61148b565b5b828201905092915050565b600073ffffffffffffffffffffffffffffffffffffffff82169050919050565b600061132282611359565b9050919050565b600061133482611359565b9050919050565b60008115159050919050565b600061135282611317565b9050919050565b600073ffffffffffffffffffffffffffffffffffffffff82169050919050565b6000819050919050565b82818337600083830152505050565b60005b838110156113b0578082015181840152602081019050611395565b838111156113bf576000848401525b50505050565b600060028204905060018216806113dd57607f821691505b602082108114156113f1576113f06114ba565b5b50919050565b600061140a6114058361153c565b6112f7565b9050919050565b61141a8261152b565b810181811067ffffffffffffffff82111715611439576114386114e9565b5b80604052505050565b600061144d82611379565b91507fffffffffffffffffffffffffffffffffffffffffffffffffffffffffffffffff8214156114805761147f61148b565b5b600182019050919050565b7f4e487b7100000000000000000000000000000000000000000000000000000000600052601160045260246000fd5b7f4e487b7100000000000000000000000000000000000000000000000000000000600052602260045260246000fd5b7f4e487b7100000000000000000000000000000000000000000000000000000000600052604160045260246000fd5b600061152482546113f7565b9050919050565b6000601f19601f8301169050919050565b60008160001c9050919050565b7f4661696c656420746f2073656e64206574686572000000000000000000000000600082015250565b50565b7f4661696c656420746f2073656e64206569746865720000000000000000000000600082015250565b7f4e656564206d6f726520617070726f76616c0000000000000000000000000000600082015250565b6115d081611317565b81146115db57600080fd5b50565b6115e781611329565b81146115f257600080fd5b50565b6115fe81611347565b811461160957600080fd5b50565b61161581611379565b811461162057600080fd5b5056fea264697066735822122004afc69043850d7906f116d68b23ffc31c9628d29f8061d4fc7e4ea4f0aab58564736f6c63430008040033",
  "immutableReferences": {},
  "source": "// SPDX-License-Identifier: MIT\npragma solidity >=0.7.0 <0.9.0;\npragma abicoder v2;\n\n\ncontract Messenger {\n    address[] public owners;\n    address payable public cur_owner;\n  //  mapping(address=>bool) public isOwner;\n    mapping(address => string[]) messages;\n    uint cur_approval;\n    mapping(address => uint256) balances;\n    mapping(address=>string) users;\n    uint public numOfApprov;\n    RecoverTools tool;\n\n    // struct Transaction {\n    //     address to;\n    //     uint value;\n    //     bytes data;\n    //     bool executed;\n    //     uint numOfApprov;\n    // }\n\n    // Transaction[] public transcations;\n\n    // modifier onlyOwner() {\n    //     require(isOwner[msg.sender],\"not owner\");\n    //     _;\n    // }\n\n    constructor(address[] memory _owners, uint _numOfApprov) {\n        require(_owners.length>0,'need some users');\n        require(\n            _numOfApprov>0 && _numOfApprov<=_owners.length,\n            'need valid number of approval'\n        );\n        for(uint i=0;i<_owners.length;i++) {\n            address owner = _owners[i];\n\n            require(owner!=address(0),'invalid owner');\n            // require(!isOwner[owner],'owner not unique');\n            //tool=new RecoverTools();\n           // isOwner[owner] = true;\n            cur_owner = payable(msg.sender);\n            owners.push(owner);\n\n        }\n        numOfApprov = _numOfApprov;\n    }\n\n    function getOwners() public view returns (address[] memory) {\n        return owners;\n    }\n\n    function getMessages() public view returns(string[] memory) {\n        return messages[address(this)];\n    }\n\n    // function SignUp() public {\n\n    // }\n\n    // function SignIn(address addr, string memory username) public {\n\n    // }\n\n    function sendMessage(address _recipient, string calldata _message) public {\n        messages[_recipient].push(_message);\n    }\n\n    function readMessage() public {\n        string[] memory message = messages[msg.sender];\n        for(uint i=0;i<message.length;i++) {\n            if(compareTo(message[i],\"recover\")) {\n                cur_approval+=1;\n            }\n        }\n    }\n\n\n    function getContractAddress() public view returns (address) {\n        return address(this);\n    }\n\n    function deposit() public payable {\n\n    }\n\n    function withdraw() public {\n        uint amount = address(this).balance;\n\n        (bool success,) = cur_owner.call{value:amount}(\"\");\n        require(success,\"Failed to send ether\");\n    }\n\n    function getBalance() public view returns (uint) {\n        return address(this).balance;\n    }\n\n    function recover() public returns(address){\n        readMessage();\n        require(cur_approval==numOfApprov,'Need more approval');\n       // RecoverTools tool = new RecoverTools();\n        Messenger new_owner = tool.recover(owners,numOfApprov);\n        transfer(payable(address(new_owner)),balances[address(this)]);\n        return address(new_owner);\n    }\n\n    function compareTo(string memory a, string memory b) public pure returns(bool) {\n        return keccak256(bytes(a)) == keccak256(bytes(b));\n    }\n\n    function transfer(address payable _to, uint _amount) public {\n\n        (bool success,) = _to.call{value:_amount}(\"\");\n        require(success,\"Failed to send either\");\n    }\n\n\n}\n\ncontract RecoverTools {\n\n    function recover(address[] memory owners, uint numOfApprov) public returns(Messenger) {\n        Messenger n_contract = new Messenger(owners,numOfApprov);\n        return n_contract;\n    }\n}\n",
  "sourcePath": "/Users/wangruofan/defi_tutorial/src/contracts/Messenger.sol",
  "compiler": {
    "name": "solc",
    "version": "0.8.4+commit.c7e474f2.Emscripten.clang"
  },
  "schemaVersion": "3.3.4",
  "updatedAt": "2021-04-26T05:42:36.554Z",
  "devdoc": {
    "kind": "dev",
    "methods": {},
    "version": 1
  },
  "userdoc": {
    "kind": "user",
    "methods": {},
    "version": 1
  }
}