{
  "contractName": "Messenger",
  "abi": [
    {
      "inputs": [
        {
          "internalType": "address[]",
          "name": "_owners",
          "type": "address[]"
        },
        {
          "internalType": "uint256",
          "name": "_numOfApprov",
          "type": "uint256"
        }
      ],
      "stateMutability": "nonpayable",
      "type": "constructor"
    },
    {
      "anonymous": false,
      "inputs": [
        {
          "indexed": false,
          "internalType": "address",
          "name": "indexed_from",
          "type": "address"
        },
        {
          "indexed": false,
          "internalType": "address",
          "name": "indexed_to",
          "type": "address"
        },
        {
          "indexed": false,
          "internalType": "uint256",
          "name": "_value",
          "type": "uint256"
        }
      ],
      "name": "Transfer",
      "type": "event"
    },
    {
      "inputs": [],
      "name": "cur_owner",
      "outputs": [
        {
          "internalType": "address payable",
          "name": "",
          "type": "address"
        }
      ],
      "stateMutability": "view",
      "type": "function"
    },
    {
      "inputs": [
        {
          "internalType": "address",
          "name": "",
          "type": "address"
        }
      ],
      "name": "isOwner",
      "outputs": [
        {
          "internalType": "bool",
          "name": "",
          "type": "bool"
        }
      ],
      "stateMutability": "view",
      "type": "function"
    },
    {
      "inputs": [],
      "name": "numOfApprov",
      "outputs": [
        {
          "internalType": "uint256",
          "name": "",
          "type": "uint256"
        }
      ],
      "stateMutability": "view",
      "type": "function"
    },
    {
      "inputs": [
        {
          "internalType": "uint256",
          "name": "",
          "type": "uint256"
        }
      ],
      "name": "owners",
      "outputs": [
        {
          "internalType": "address",
          "name": "",
          "type": "address"
        }
      ],
      "stateMutability": "view",
      "type": "function"
    },
    {
      "inputs": [],
      "name": "getOwners",
      "outputs": [
        {
          "internalType": "address[]",
          "name": "",
          "type": "address[]"
        }
      ],
      "stateMutability": "view",
      "type": "function"
    },
    {
      "inputs": [],
      "name": "getMessages",
      "outputs": [
        {
          "internalType": "string[]",
          "name": "",
          "type": "string[]"
        }
      ],
      "stateMutability": "view",
      "type": "function"
    },
    {
      "inputs": [
        {
          "internalType": "address",
          "name": "_recipient",
          "type": "address"
        },
        {
          "internalType": "string",
          "name": "_message",
          "type": "string"
        }
      ],
      "name": "sendMessage",
      "outputs": [],
      "stateMutability": "nonpayable",
      "type": "function"
    },
    {
      "inputs": [],
      "name": "readMessage",
      "outputs": [],
      "stateMutability": "nonpayable",
      "type": "function"
    },
    {
      "inputs": [],
      "name": "getContractAddress",
      "outputs": [
        {
          "internalType": "address",
          "name": "",
          "type": "address"
        }
      ],
      "stateMutability": "view",
      "type": "function"
    },
    {
      "inputs": [],
      "name": "deposit",
      "outputs": [],
      "stateMutability": "payable",
      "type": "function"
    },
    {
      "inputs": [],
      "name": "withdraw",
      "outputs": [],
      "stateMutability": "nonpayable",
      "type": "function"
    },
    {
      "inputs": [],
      "name": "getBalance",
      "outputs": [
        {
          "internalType": "uint256",
          "name": "",
          "type": "uint256"
        }
      ],
      "stateMutability": "view",
      "type": "function"
    },
    {
      "inputs": [],
      "name": "recover",
      "outputs": [
        {
          "internalType": "address",
          "name": "",
          "type": "address"
        }
      ],
      "stateMutability": "nonpayable",
      "type": "function"
    },
    {
      "inputs": [
        {
          "internalType": "string",
          "name": "a",
          "type": "string"
        },
        {
          "internalType": "string",
          "name": "b",
          "type": "string"
        }
      ],
      "name": "compareTo",
      "outputs": [
        {
          "internalType": "bool",
          "name": "",
          "type": "bool"
        }
      ],
      "stateMutability": "pure",
      "type": "function"
    },
    {
      "inputs": [
        {
          "internalType": "address payable",
          "name": "_to",
          "type": "address"
        },
        {
          "internalType": "uint256",
          "name": "_amount",
          "type": "uint256"
        }
      ],
      "name": "transfer",
      "outputs": [],
      "stateMutability": "nonpayable",
      "type": "function"
    }
  ],
  "bytecode": "0x60806040523480156200001157600080fd5b5060405162001c7a38038062001c7a8339818101604052810190620000379190620003d1565b60008251116200007e576040517f08c379a0000000000000000000000000000000000000000000000000000000008152600401620000759062000555565b60405180910390fd5b60008111801562000090575081518111155b620000d2576040517f08c379a0000000000000000000000000000000000000000000000000000000008152600401620000c99062000577565b60405180910390fd5b60005b825181101562000306576000838281518110620000ee57fe5b60200260200101519050600073ffffffffffffffffffffffffffffffffffffffff168173ffffffffffffffffffffffffffffffffffffffff1614156200016b576040517f08c379a0000000000000000000000000000000000000000000000000000000008152600401620001629062000599565b60405180910390fd5b600260008273ffffffffffffffffffffffffffffffffffffffff1673ffffffffffffffffffffffffffffffffffffffff16815260200190815260200160002060009054906101000a900460ff1615620001fb576040517f08c379a0000000000000000000000000000000000000000000000000000000008152600401620001f29062000533565b60405180910390fd5b6001600260008373ffffffffffffffffffffffffffffffffffffffff1673ffffffffffffffffffffffffffffffffffffffff16815260200190815260200160002060006101000a81548160ff02191690831515021790555033600160006101000a81548173ffffffffffffffffffffffffffffffffffffffff021916908373ffffffffffffffffffffffffffffffffffffffff1602179055506000819080600181540180825580915050600190039060005260206000200160009091909190916101000a81548173ffffffffffffffffffffffffffffffffffffffff021916908373ffffffffffffffffffffffffffffffffffffffff160217905550508080600101915050620000d5565b50806007819055505050620006a3565b60008151905062000327816200066f565b92915050565b600082601f8301126200033f57600080fd5b8151620003566200035082620005ef565b620005bb565b915081818352602084019350602081019050838560208402820111156200037c57600080fd5b60005b83811015620003b0578162000395888262000316565b8452602084019350602083019250506001810190506200037f565b5050505092915050565b600081519050620003cb8162000689565b92915050565b60008060408385031215620003e557600080fd5b600083015167ffffffffffffffff8111156200040057600080fd5b6200040e858286016200032d565b92505060206200042185828601620003ba565b9150509250929050565b60006200043a6010836200061e565b91507f6f776e6572206e6f7420756e69717565000000000000000000000000000000006000830152602082019050919050565b60006200047c600f836200061e565b91507f6e65656420736f6d6520757365727300000000000000000000000000000000006000830152602082019050919050565b6000620004be601d836200061e565b91507f6e6565642076616c6964206e756d626572206f6620617070726f76616c0000006000830152602082019050919050565b600062000500600d836200061e565b91507f696e76616c6964206f776e6572000000000000000000000000000000000000006000830152602082019050919050565b600060208201905081810360008301526200054e816200042b565b9050919050565b6000602082019050818103600083015262000570816200046d565b9050919050565b600060208201905081810360008301526200059281620004af565b9050919050565b60006020820190508181036000830152620005b481620004f1565b9050919050565b6000604051905081810181811067ffffffffffffffff82111715620005e557620005e46200066d565b5b8060405250919050565b600067ffffffffffffffff8211156200060d576200060c6200066d565b5b602082029050602081019050919050565b600082825260208201905092915050565b60006200063c8262000643565b9050919050565b600073ffffffffffffffffffffffffffffffffffffffff82169050919050565b6000819050919050565bfe5b6200067a816200062f565b81146200068657600080fd5b50565b620006948162000663565b8114620006a057600080fd5b50565b6115c780620006b36000396000f3fe6080604052600436106100e85760003560e01c806364da25c71161008a578063ce74602411610059578063ce746024146102d2578063d0e30db0146102fd578063de6f24bb14610307578063fc57f98714610330576100e8565b806364da25c7146102165780637d1a6e3f14610241578063a0e67e2b1461027e578063a9059cbb146102a9576100e8565b80632f54bf6e116100c65780632f54bf6e1461016c57806332a2c5d0146101a95780633ccfd60b146101d45780635ff6cbf3146101eb576100e8565b8063025e7c27146100ed578063031d5d011461012a57806312065fe014610141575b600080fd5b3480156100f957600080fd5b50610114600480360381019061010f9190610e26565b61035b565b6040516101219190611135565b60405180910390f35b34801561013657600080fd5b5061013f61039a565b005b34801561014d57600080fd5b50610156610543565b6040516101639190611291565b60405180910390f35b34801561017857600080fd5b50610193600480360381019061018e9190610cd4565b610562565b6040516101a09190611216565b60405180910390f35b3480156101b557600080fd5b506101be610582565b6040516101cb9190611135565b60405180910390f35b3480156101e057600080fd5b506101e961058a565b005b3480156101f757600080fd5b50610200610678565b60405161020d91906111f4565b60405180910390f35b34801561022257600080fd5b5061022b61079e565b6040516102389190611291565b60405180910390f35b34801561024d57600080fd5b5061026860048036038101906102639190610dba565b6107a4565b6040516102759190611216565b60405180910390f35b34801561028a57600080fd5b506102936107bf565b6040516102a091906111a2565b60405180910390f35b3480156102b557600080fd5b506102d060048036038101906102cb9190610cfd565b61084d565b005b3480156102de57600080fd5b506102e7610939565b6040516102f49190611135565b60405180910390f35b610305610a8f565b005b34801561031357600080fd5b5061032e60048036038101906103299190610d39565b610a91565b005b34801561033c57600080fd5b50610345610b11565b6040516103529190611150565b60405180910390f35b6000818154811061036b57600080fd5b906000526020600020016000915054906101000a900473ffffffffffffffffffffffffffffffffffffffff1681565b6060600360003373ffffffffffffffffffffffffffffffffffffffff1673ffffffffffffffffffffffffffffffffffffffff168152602001908152602001600020805480602002602001604051908101604052809291908181526020016000905b828210156104b7578382906000526020600020018054600181600116156101000203166002900480601f0160208091040260200160405190810160405280929190818152602001828054600181600116156101000203166002900480156104a35780601f10610478576101008083540402835291602001916104a3565b820191906000526020600020905b81548152906001019060200180831161048657829003601f168201915b5050505050815260200190600101906103fb565b50505050905060005b815181101561053f5761051b8282815181106104d857fe5b60200260200101516040518060400160405280600781526020017f7265636f766572000000000000000000000000000000000000000000000000008152506107a4565b156105325760016004600082825401925050819055505b80806001019150506104c0565b5050565b60003073ffffffffffffffffffffffffffffffffffffffff1631905090565b60026020528060005260406000206000915054906101000a900460ff1681565b600030905090565b60003073ffffffffffffffffffffffffffffffffffffffff163190506000600160009054906101000a900473ffffffffffffffffffffffffffffffffffffffff1673ffffffffffffffffffffffffffffffffffffffff16826040516105ee90611120565b60006040518083038185875af1925050503d806000811461062b576040519150601f19603f3d011682016040523d82523d6000602084013e610630565b606091505b5050905080610674576040517f08c379a000000000000000000000000000000000000000000000000000000000815260040161066b90611231565b60405180910390fd5b5050565b6060600360003073ffffffffffffffffffffffffffffffffffffffff1673ffffffffffffffffffffffffffffffffffffffff168152602001908152602001600020805480602002602001604051908101604052809291908181526020016000905b82821015610795578382906000526020600020018054600181600116156101000203166002900480601f0160208091040260200160405190810160405280929190818152602001828054600181600116156101000203166002900480156107815780601f1061075657610100808354040283529160200191610781565b820191906000526020600020905b81548152906001019060200180831161076457829003601f168201915b5050505050815260200190600101906106d9565b50505050905090565b60075481565b60008180519060200120838051906020012014905092915050565b6060600080548060200260200160405190810160405280929190818152602001828054801561084357602002820191906000526020600020905b8160009054906101000a900473ffffffffffffffffffffffffffffffffffffffff1673ffffffffffffffffffffffffffffffffffffffff16815260200190600101908083116107f9575b5050505050905090565b7fddf252ad1be2c89b69c2b068fc378daa952ba7f163c4a11628f55a4df523b3ef3383836040516108809392919061116b565b60405180910390a160008273ffffffffffffffffffffffffffffffffffffffff16826040516108ae90611120565b60006040518083038185875af1925050503d80600081146108eb576040519150601f19603f3d011682016040523d82523d6000602084013e6108f0565b606091505b5050905080610934576040517f08c379a000000000000000000000000000000000000000000000000000000000815260040161092b90611251565b60405180910390fd5b505050565b600061094361039a565b60075460045414610989576040517f08c379a000000000000000000000000000000000000000000000000000000000815260040161098090611271565b60405180910390fd5b6000600860009054906101000a900473ffffffffffffffffffffffffffffffffffffffff1673ffffffffffffffffffffffffffffffffffffffff166335abdee860006007546040518363ffffffff1660e01b81526004016109eb9291906111c4565b602060405180830381600087803b158015610a0557600080fd5b505af1158015610a19573d6000803e3d6000fd5b505050506040513d601f19601f82011682018060405250810190610a3d9190610d91565b9050610a8881600560003073ffffffffffffffffffffffffffffffffffffffff1673ffffffffffffffffffffffffffffffffffffffff1681526020019081526020016000205461084d565b8091505090565b565b600360008473ffffffffffffffffffffffffffffffffffffffff1673ffffffffffffffffffffffffffffffffffffffff168152602001908152602001600020828290918060018154018082558091505060019003906000526020600020016000909192909192909192909192509190610b0b929190610b37565b50505050565b600160009054906101000a900473ffffffffffffffffffffffffffffffffffffffff1681565b828054600181600116156101000203166002900490600052602060002090601f016020900481019282610b6d5760008555610bb4565b82601f10610b8657803560ff1916838001178555610bb4565b82800160010185558215610bb4579182015b82811115610bb3578235825591602001919060010190610b98565b5b509050610bc19190610bc5565b5090565b5b80821115610bde576000816000905550600101610bc6565b5090565b600081359050610bf181611535565b92915050565b600081359050610c068161154c565b92915050565b600081519050610c1b81611563565b92915050565b60008083601f840112610c3357600080fd5b8235905067ffffffffffffffff811115610c4c57600080fd5b602083019150836001820283011115610c6457600080fd5b9250929050565b600082601f830112610c7c57600080fd5b8135610c8f610c8a826112dd565b6112ac565b91508082526020830160208301858383011115610cab57600080fd5b610cb68382846114a6565b50505092915050565b600081359050610cce8161157a565b92915050565b600060208284031215610ce657600080fd5b6000610cf484828501610be2565b91505092915050565b60008060408385031215610d1057600080fd5b6000610d1e85828601610bf7565b9250506020610d2f85828601610cbf565b9150509250929050565b600080600060408486031215610d4e57600080fd5b6000610d5c86828701610be2565b935050602084013567ffffffffffffffff811115610d7957600080fd5b610d8586828701610c21565b92509250509250925092565b600060208284031215610da357600080fd5b6000610db184828501610c0c565b91505092915050565b60008060408385031215610dcd57600080fd5b600083013567ffffffffffffffff811115610de757600080fd5b610df385828601610c6b565b925050602083013567ffffffffffffffff811115610e1057600080fd5b610e1c85828601610c6b565b9150509250929050565b600060208284031215610e3857600080fd5b6000610e4684828501610cbf565b91505092915050565b6000610e5b8383610e99565b60208301905092915050565b6000610e738383610ffe565b905092915050565b610e8481611470565b82525050565b610e9381611416565b82525050565b610ea281611404565b82525050565b610eb181611404565b82525050565b6000610ec282611342565b610ecc8185611395565b9350610ed78361130d565b8060005b83811015610f08578151610eef8882610e4f565b9750610efa8361136e565b925050600181019050610edb565b5085935050505092915050565b6000610f208261134d565b610f2a8185611395565b9350610f358361131d565b8060005b83811015610f6d57610f4a82611504565b610f548882610e4f565b9750610f5f8361137b565b925050600181019050610f39565b5085935050505092915050565b6000610f8582611358565b610f8f81856113a6565b935083602082028501610fa185611332565b8060005b85811015610fdd5784840389528151610fbe8582610e67565b9450610fc983611388565b925060208a01995050600181019050610fa5565b50829750879550505050505092915050565b610ff881611428565b82525050565b600061100982611363565b61101381856113c2565b93506110238185602086016114b5565b61102c81611517565b840191505092915050565b60006110446014836113d3565b91507f4661696c656420746f2073656e642065746865720000000000000000000000006000830152602082019050919050565b60006110846000836113b7565b9150600082019050919050565b600061109e6015836113d3565b91507f4661696c656420746f2073656e642065697468657200000000000000000000006000830152602082019050919050565b60006110de6012836113d3565b91507f4e656564206d6f726520617070726f76616c00000000000000000000000000006000830152602082019050919050565b61111a81611466565b82525050565b600061112b82611077565b9150819050919050565b600060208201905061114a6000830184610ea8565b92915050565b60006020820190506111656000830184610e8a565b92915050565b60006060820190506111806000830186610e7b565b61118d6020830185610e7b565b61119a6040830184611111565b949350505050565b600060208201905081810360008301526111bc8184610eb7565b905092915050565b600060408201905081810360008301526111de8185610f15565b90506111ed6020830184611111565b9392505050565b6000602082019050818103600083015261120e8184610f7a565b905092915050565b600060208201905061122b6000830184610fef565b92915050565b6000602082019050818103600083015261124a81611037565b9050919050565b6000602082019050818103600083015261126a81611091565b9050919050565b6000602082019050818103600083015261128a816110d1565b9050919050565b60006020820190506112a66000830184611111565b92915050565b6000604051905081810181811067ffffffffffffffff821117156112d3576112d2611502565b5b8060405250919050565b600067ffffffffffffffff8211156112f8576112f7611502565b5b601f19601f8301169050602081019050919050565b6000819050602082019050919050565b60008190508160005260206000209050919050565b6000819050602082019050919050565b600081519050919050565b600081549050919050565b600081519050919050565b600081519050919050565b6000602082019050919050565b6000600182019050919050565b6000602082019050919050565b600082825260208201905092915050565b600082825260208201905092915050565b600081905092915050565b600082825260208201905092915050565b600082825260208201905092915050565b600073ffffffffffffffffffffffffffffffffffffffff82169050919050565b600061140f82611446565b9050919050565b600061142182611446565b9050919050565b60008115159050919050565b600061143f82611404565b9050919050565b600073ffffffffffffffffffffffffffffffffffffffff82169050919050565b6000819050919050565b600061147b82611482565b9050919050565b600061148d82611494565b9050919050565b600061149f82611446565b9050919050565b82818337600083830152505050565b60005b838110156114d35780820151818401526020810190506114b8565b838111156114e2576000848401525b50505050565b60006114fb6114f683611528565b6113e4565b9050919050565bfe5b600061151082546114e8565b9050919050565b6000601f19601f8301169050919050565b60008160001c9050919050565b61153e81611404565b811461154957600080fd5b50565b61155581611416565b811461156057600080fd5b50565b61156c81611434565b811461157757600080fd5b50565b61158381611466565b811461158e57600080fd5b5056fea2646970667358221220b88b50662b53a02cac45ee19e03671c3fa4721428da9eb6a77d2e77803b952c964736f6c63430007040033",
  "immutableReferences": {},
  "source": "// SPDX-License-Identifier: MIT\npragma solidity >=0.7.0 <0.9.0;\n//pragma abicoder v2;\npragma experimental ABIEncoderV2;\n// import \"./RecoverTools.sol\";\n\n// interface general_user{\n    \n//     function register(string calldata password) external returns (bool,address);\n    \n//     function login(address addr, string calldata password) external returns (bool);\n    \n//     function recover(address user_addr) external returns (bool,address);\n    \n//     function addFriends(address[] calldata friends) external returns (address);\n    \n    \n// }\n\ncontract Messenger {\n    address[] public owners;\n    address payable public cur_owner;\n    mapping(address=>bool) public isOwner;\n    mapping(address => string[]) messages;\n    uint cur_approval;\n    mapping(address => uint256) balances;\n    mapping(address=>string) users;\n    uint public numOfApprov;\n    RecoverTools tool;\n    \n    // struct Transaction {\n    //     address to;\n    //     uint value;\n    //     bytes data;\n    //     bool executed;\n    //     uint numOfApprov;\n    // }\n    \n    // Transaction[] public transcations;\n    \n    modifier onlyOwner() {\n        require(isOwner[msg.sender],\"not owner\");\n        _;\n    }\n    \n    constructor(address[] memory _owners, uint _numOfApprov) {\n        require(_owners.length>0,'need some users');\n        require(\n            _numOfApprov>0 && _numOfApprov<=_owners.length,\n            'need valid number of approval'\n        );\n        for(uint i=0;i<_owners.length;i++) {\n            address owner = _owners[i];\n            \n            require(owner!=address(0),'invalid owner');\n            require(!isOwner[owner],'owner not unique');\n            //tool=new RecoverTools();\n            isOwner[owner] = true;\n            cur_owner = payable(msg.sender);\n            owners.push(owner);\n            \n        }\n        numOfApprov = _numOfApprov;\n    }\n    \n    function getOwners() public view returns (address[] memory) {\n        return owners;\n    }\n    \n    function getMessages() public view returns(string[] memory) {\n        return messages[address(this)];\n    }\n    \n    // function SignUp() public {\n        \n    // }\n    \n    // function SignIn(address addr, string memory username) public {\n        \n    // }\n    \n    function sendMessage(address _recipient, string calldata _message) public {\n        messages[_recipient].push(_message);\n    }\n    \n    function readMessage() public {\n        string[] memory message = messages[msg.sender];\n        for(uint i=0;i<message.length;i++) {\n            if(compareTo(message[i],\"recover\")) {\n                cur_approval+=1;\n            }\n        }\n    }\n    \n    \n    function getContractAddress() public view returns (address) {\n        return address(this);\n    }\n    \n    function deposit() public payable {\n        \n    }\n    \n    function withdraw() public {\n        uint amount = address(this).balance;\n        \n        (bool success,) = cur_owner.call{value:amount}(\"\");\n        require(success,\"Failed to send ether\");\n    }\n    \n    function getBalance() public view returns (uint) {\n        return address(this).balance;\n    }\n    \n    function recover() public returns(address){\n        readMessage();\n        require(cur_approval==numOfApprov,'Need more approval');\n       // RecoverTools tool = new RecoverTools();\n        Messenger new_owner = tool.recover(owners,numOfApprov);\n        transfer(payable(address(new_owner)),balances[address(this)]);\n        return address(new_owner);\n    }\n    \n    function compareTo(string memory a, string memory b) public pure returns(bool) {\n        return keccak256(bytes(a)) == keccak256(bytes(b));\n    }\n    event Transfer(address indexed_from, address indexed_to, uint _value);\n\n    function transfer(address payable _to, uint _amount) public {\n        emit Transfer(msg.sender,_to,_amount);\n        (bool success,) = _to.call{value:_amount}(\"\");\n        require(success,\"Failed to send either\");\n    }\n    \n    \n}\n\ncontract RecoverTools {\n    \n    function recover(address[] memory owners, uint numOfApprov) public returns(Messenger) {\n        Messenger n_contract = new Messenger(owners,numOfApprov);\n        return n_contract;\n    }\n}",
  "sourcePath": "/Users/liwentian/Desktop/Smart-Contract-Wallet/src/contracts/messenger.sol",
  "compiler": {
    "name": "solc",
    "version": "0.7.4+commit.3f05b770.Emscripten.clang"
  },
  "schemaVersion": "3.2.3",
  "updatedAt": "2021-04-26T20:59:07.607Z",
  "devdoc": {
    "kind": "dev",
    "methods": {},
    "version": 1
  },
  "userdoc": {
    "kind": "user",
    "methods": {},
    "version": 1
  }
}