{
  "contractName": "User2Contract",
  "abi": [
    {
      "inputs": [
        {
          "internalType": "uint256",
          "name": "",
          "type": "uint256"
        }
      ],
      "name": "users",
      "outputs": [
        {
          "internalType": "address",
          "name": "",
          "type": "address"
        }
      ],
      "stateMutability": "view",
      "type": "function",
      "constant": true
    },
    {
      "inputs": [],
      "name": "init",
      "outputs": [
        {
          "internalType": "bool",
          "name": "",
          "type": "bool"
        }
      ],
      "stateMutability": "nonpayable",
      "type": "function"
    },
    {
      "inputs": [
        {
          "internalType": "address",
          "name": "addr",
          "type": "address"
        }
      ],
      "name": "getMessenger",
      "outputs": [
        {
          "internalType": "contract Messenger",
          "name": "",
          "type": "address"
        }
      ],
      "stateMutability": "view",
      "type": "function",
      "constant": true
    }
  ],
  "bytecode": "0x60806040526040518060600160405280735ac5ebeabb1ac3003e81f0f8c0c0f9f0ccbc478873ffffffffffffffffffffffffffffffffffffffff1673ffffffffffffffffffffffffffffffffffffffff1681526020017326ead430951a44013b8c24546018a8b8ac915a5573ffffffffffffffffffffffffffffffffffffffff1673ffffffffffffffffffffffffffffffffffffffff1681526020017344f9d50604dd3bd6490010d648a9d8c4df734d6273ffffffffffffffffffffffffffffffffffffffff1673ffffffffffffffffffffffffffffffffffffffff1681525060019060036100ef929190610102565b503480156100fc57600080fd5b506101a9565b82805482825590600052602060002090810192821561017b579160200282015b8281111561017a5782518260006101000a81548173ffffffffffffffffffffffffffffffffffffffff021916908373ffffffffffffffffffffffffffffffffffffffff16021790555091602001919060010190610122565b5b509050610188919061018c565b5090565b5b808211156101a557600081600090555060010161018d565b5090565b6126d8806101b86000396000f3fe60806040523480156200001157600080fd5b5060043610620000465760003560e01c8063365b98b2146200004b578063d964eba91462000081578063e1c7392a14620000b7575b600080fd5b62000069600480360381019062000063919062000351565b620000d9565b6040516200007891906200045f565b60405180910390f35b6200009f600480360381019062000099919062000325565b62000119565b604051620000ae9190620004cd565b60405180910390f35b620000c162000181565b604051620000d09190620004b0565b60405180910390f35b60018181548110620000ea57600080fd5b906000526020600020016000915054906101000a900473ffffffffffffffffffffffffffffffffffffffff1681565b60008060008373ffffffffffffffffffffffffffffffffffffffff1673ffffffffffffffffffffffffffffffffffffffff16815260200190815260200160002060009054906101000a900473ffffffffffffffffffffffffffffffffffffffff169050919050565b600080600090505b600180549050811015620002e15760006001808080549050620001ad919062000528565b604051620001bb90620002e9565b620001c89291906200047c565b604051809103906000f080158015620001e5573d6000803e3d6000fd5b509050806000806001858154811062000227577f4e487b7100000000000000000000000000000000000000000000000000000000600052603260045260246000fd5b9060005260206000200160009054906101000a900473ffffffffffffffffffffffffffffffffffffffff1673ffffffffffffffffffffffffffffffffffffffff1673ffffffffffffffffffffffffffffffffffffffff16815260200190815260200160002060006101000a81548173ffffffffffffffffffffffffffffffffffffffff021916908373ffffffffffffffffffffffffffffffffffffffff160217905550508080620002d89062000613565b91505062000189565b506001905090565b611fbc80620006e783390190565b6000813590506200030881620006b2565b92915050565b6000813590506200031f81620006cc565b92915050565b6000602082840312156200033857600080fd5b60006200034884828501620002f7565b91505092915050565b6000602082840312156200036457600080fd5b600062000374848285016200030e565b91505092915050565b60006200038b838362000397565b60208301905092915050565b620003a28162000583565b82525050565b620003b38162000583565b82525050565b6000620003c682620004ff565b620003d2818562000517565b9350620003df83620004ea565b8060005b838110156200041f57620003f78262000690565b6200040388826200037d565b975062000410836200050a565b925050600181019050620003e3565b5085935050505092915050565b620004378162000597565b82525050565b6200044881620005cd565b82525050565b6200045981620005c3565b82525050565b6000602082019050620004766000830184620003a8565b92915050565b60006040820190508181036000830152620004988185620003b9565b9050620004a960208301846200044e565b9392505050565b6000602082019050620004c760008301846200042c565b92915050565b6000602082019050620004e460008301846200043d565b92915050565b60008190508160005260206000209050919050565b600081549050919050565b6000600182019050919050565b600082825260208201905092915050565b60006200053582620005c3565b91506200054283620005c3565b92508282101562000558576200055762000661565b5b828203905092915050565b600073ffffffffffffffffffffffffffffffffffffffff82169050919050565b60006200059082620005a3565b9050919050565b60008115159050919050565b600073ffffffffffffffffffffffffffffffffffffffff82169050919050565b6000819050919050565b6000620005da82620005e1565b9050919050565b6000620005ee82620005a3565b9050919050565b60006200060c6200060683620006a5565b62000563565b9050919050565b60006200062082620005c3565b91507fffffffffffffffffffffffffffffffffffffffffffffffffffffffffffffffff82141562000656576200065562000661565b5b600182019050919050565b7f4e487b7100000000000000000000000000000000000000000000000000000000600052601160045260246000fd5b60006200069e8254620005f5565b9050919050565b60008160001c9050919050565b620006bd8162000583565b8114620006c957600080fd5b50565b620006d781620005c3565b8114620006e357600080fd5b5056fe60806040523480156200001157600080fd5b5060405162001fbc38038062001fbc83398181016040528101906200003791906200041b565b60008251116200007e576040517f08c379a0000000000000000000000000000000000000000000000000000000008152600401620000759062000533565b60405180910390fd5b60008111801562000090575081518111155b620000d2576040517f08c379a0000000000000000000000000000000000000000000000000000000008152600401620000c99062000555565b60405180910390fd5b60005b82518110156200033b5760008382815181106200011b577f4e487b7100000000000000000000000000000000000000000000000000000000600052603260045260246000fd5b60200260200101519050600073ffffffffffffffffffffffffffffffffffffffff168173ffffffffffffffffffffffffffffffffffffffff16141562000198576040517f08c379a00000000000000000000000000000000000000000000000000000000081526004016200018f9062000577565b60405180910390fd5b600260008273ffffffffffffffffffffffffffffffffffffffff1673ffffffffffffffffffffffffffffffffffffffff16815260200190815260200160002060009054906101000a900460ff161562000228576040517f08c379a00000000000000000000000000000000000000000000000000000000081526004016200021f9062000511565b60405180910390fd5b6001600260008373ffffffffffffffffffffffffffffffffffffffff1673ffffffffffffffffffffffffffffffffffffffff16815260200190815260200160002060006101000a81548160ff02191690831515021790555033600160006101000a81548173ffffffffffffffffffffffffffffffffffffffff021916908373ffffffffffffffffffffffffffffffffffffffff1602179055506000819080600181540180825580915050600190039060005260206000200160009091909190916101000a81548173ffffffffffffffffffffffffffffffffffffffff021916908373ffffffffffffffffffffffffffffffffffffffff160217905550508080620003329062000676565b915050620000d5565b508060078190555050506200080b565b6000620003626200035c84620005c2565b62000599565b905080838252602082019050828560208602820111156200038257600080fd5b60005b85811015620003b657816200039b8882620003c0565b84526020840193506020830192505060018101905062000385565b5050509392505050565b600081519050620003d181620007d7565b92915050565b600082601f830112620003e957600080fd5b8151620003fb8482602086016200034b565b91505092915050565b6000815190506200041581620007f1565b92915050565b600080604083850312156200042f57600080fd5b600083015167ffffffffffffffff8111156200044a57600080fd5b6200045885828601620003d7565b92505060206200046b8582860162000404565b9150509250929050565b600062000484601083620005f1565b9150620004918262000733565b602082019050919050565b6000620004ab600f83620005f1565b9150620004b8826200075c565b602082019050919050565b6000620004d2601d83620005f1565b9150620004df8262000785565b602082019050919050565b6000620004f9600d83620005f1565b91506200050682620007ae565b602082019050919050565b600060208201905081810360008301526200052c8162000475565b9050919050565b600060208201905081810360008301526200054e816200049c565b9050919050565b600060208201905081810360008301526200057081620004c3565b9050919050565b600060208201905081810360008301526200059281620004ea565b9050919050565b6000620005a5620005b8565b9050620005b3828262000640565b919050565b6000604051905090565b600067ffffffffffffffff821115620005e057620005df620006f3565b5b602082029050602081019050919050565b600082825260208201905092915050565b60006200060f8262000616565b9050919050565b600073ffffffffffffffffffffffffffffffffffffffff82169050919050565b6000819050919050565b6200064b8262000722565b810181811067ffffffffffffffff821117156200066d576200066c620006f3565b5b80604052505050565b6000620006838262000636565b91507fffffffffffffffffffffffffffffffffffffffffffffffffffffffffffffffff821415620006b957620006b8620006c4565b5b600182019050919050565b7f4e487b7100000000000000000000000000000000000000000000000000000000600052601160045260246000fd5b7f4e487b7100000000000000000000000000000000000000000000000000000000600052604160045260246000fd5b6000601f19601f8301169050919050565b7f6f776e6572206e6f7420756e6971756500000000000000000000000000000000600082015250565b7f6e65656420736f6d652075736572730000000000000000000000000000000000600082015250565b7f6e6565642076616c6964206e756d626572206f6620617070726f76616c000000600082015250565b7f696e76616c6964206f776e657200000000000000000000000000000000000000600082015250565b620007e28162000602565b8114620007ee57600080fd5b50565b620007fc8162000636565b81146200080857600080fd5b50565b6117a1806200081b6000396000f3fe6080604052600436106100e85760003560e01c806364da25c71161008a578063ce74602411610059578063ce746024146102d2578063d0e30db0146102fd578063de6f24bb14610307578063fc57f98714610330576100e8565b806364da25c7146102165780637d1a6e3f14610241578063a0e67e2b1461027e578063a9059cbb146102a9576100e8565b80632f54bf6e116100c65780632f54bf6e1461016c57806332a2c5d0146101a95780633ccfd60b146101d45780635ff6cbf3146101eb576100e8565b8063025e7c27146100ed578063031d5d011461012a57806312065fe014610141575b600080fd5b3480156100f957600080fd5b50610114600480360381019061010f9190610e4e565b61035b565b604051610121919061110f565b60405180910390f35b34801561013657600080fd5b5061013f61039a565b005b34801561014d57600080fd5b5061015661056f565b604051610163919061126b565b60405180910390f35b34801561017857600080fd5b50610193600480360381019061018e9190610cfc565b61058e565b6040516101a091906111f0565b60405180910390f35b3480156101b557600080fd5b506101be6105ae565b6040516101cb919061110f565b60405180910390f35b3480156101e057600080fd5b506101e96105b6565b005b3480156101f757600080fd5b506102006106a4565b60405161020d91906111ce565b60405180910390f35b34801561022257600080fd5b5061022b6107ba565b604051610238919061126b565b60405180910390f35b34801561024d57600080fd5b5061026860048036038101906102639190610de2565b6107c0565b60405161027591906111f0565b60405180910390f35b34801561028a57600080fd5b506102936107db565b6040516102a0919061117c565b60405180910390f35b3480156102b557600080fd5b506102d060048036038101906102cb9190610d25565b610869565b005b3480156102de57600080fd5b506102e7610955565b6040516102f4919061110f565b60405180910390f35b610305610aab565b005b34801561031357600080fd5b5061032e60048036038101906103299190610d61565b610aad565b005b34801561033c57600080fd5b50610345610b2d565b604051610352919061112a565b60405180910390f35b6000818154811061036b57600080fd5b906000526020600020016000915054906101000a900473ffffffffffffffffffffffffffffffffffffffff1681565b6000600360003373ffffffffffffffffffffffffffffffffffffffff1673ffffffffffffffffffffffffffffffffffffffff168152602001908152602001600020805480602002602001604051908101604052809291908181526020016000905b828210156104a757838290600052602060002001805461041a9061150d565b80601f01602080910402602001604051908101604052809291908181526020018280546104469061150d565b80156104935780601f1061046857610100808354040283529160200191610493565b820191906000526020600020905b81548152906001019060200180831161047657829003601f168201915b5050505050815260200190600101906103fb565b50505050905060005b815181101561056b576105388282815181106104f5577f4e487b7100000000000000000000000000000000000000000000000000000000600052603260045260246000fd5b60200260200101516040518060400160405280600781526020017f7265636f766572000000000000000000000000000000000000000000000000008152506107c0565b156105585760016004600082825461055091906113b3565b925050819055505b80806105639061158a565b9150506104b0565b5050565b60003073ffffffffffffffffffffffffffffffffffffffff1631905090565b60026020528060005260406000206000915054906101000a900460ff1681565b600030905090565b60003073ffffffffffffffffffffffffffffffffffffffff163190506000600160009054906101000a900473ffffffffffffffffffffffffffffffffffffffff1673ffffffffffffffffffffffffffffffffffffffff168260405161061a906110fa565b60006040518083038185875af1925050503d8060008114610657576040519150601f19603f3d011682016040523d82523d6000602084013e61065c565b606091505b50509050806106a0576040517f08c379a00000000000000000000000000000000000000000000000000000000081526004016106979061120b565b60405180910390fd5b5050565b6060600360003073ffffffffffffffffffffffffffffffffffffffff1673ffffffffffffffffffffffffffffffffffffffff168152602001908152602001600020805480602002602001604051908101604052809291908181526020016000905b828210156107b15783829060005260206000200180546107249061150d565b80601f01602080910402602001604051908101604052809291908181526020018280546107509061150d565b801561079d5780601f106107725761010080835404028352916020019161079d565b820191906000526020600020905b81548152906001019060200180831161078057829003601f168201915b505050505081526020019060010190610705565b50505050905090565b60075481565b60008180519060200120838051906020012014905092915050565b6060600080548060200260200160405190810160405280929190818152602001828054801561085f57602002820191906000526020600020905b8160009054906101000a900473ffffffffffffffffffffffffffffffffffffffff1673ffffffffffffffffffffffffffffffffffffffff1681526020019060010190808311610815575b5050505050905090565b7fddf252ad1be2c89b69c2b068fc378daa952ba7f163c4a11628f55a4df523b3ef33838360405161089c93929190611145565b60405180910390a160008273ffffffffffffffffffffffffffffffffffffffff16826040516108ca906110fa565b60006040518083038185875af1925050503d8060008114610907576040519150601f19603f3d011682016040523d82523d6000602084013e61090c565b606091505b5050905080610950576040517f08c379a00000000000000000000000000000000000000000000000000000000081526004016109479061122b565b60405180910390fd5b505050565b600061095f61039a565b600754600454146109a5576040517f08c379a000000000000000000000000000000000000000000000000000000000815260040161099c9061124b565b60405180910390fd5b6000600860009054906101000a900473ffffffffffffffffffffffffffffffffffffffff1673ffffffffffffffffffffffffffffffffffffffff166335abdee860006007546040518363ffffffff1660e01b8152600401610a0792919061119e565b602060405180830381600087803b158015610a2157600080fd5b505af1158015610a35573d6000803e3d6000fd5b505050506040513d601f19601f82011682018060405250810190610a599190610db9565b9050610aa481600560003073ffffffffffffffffffffffffffffffffffffffff1673ffffffffffffffffffffffffffffffffffffffff16815260200190815260200160002054610869565b8091505090565b565b600360008473ffffffffffffffffffffffffffffffffffffffff1673ffffffffffffffffffffffffffffffffffffffff168152602001908152602001600020828290918060018154018082558091505060019003906000526020600020016000909192909192909192909192509190610b27929190610b53565b50505050565b600160009054906101000a900473ffffffffffffffffffffffffffffffffffffffff1681565b828054610b5f9061150d565b90600052602060002090601f016020900481019282610b815760008555610bc8565b82601f10610b9a57803560ff1916838001178555610bc8565b82800160010185558215610bc8579182015b82811115610bc7578235825591602001919060010190610bac565b5b509050610bd59190610bd9565b5090565b5b80821115610bf2576000816000905550600101610bda565b5090565b6000610c09610c04846112ab565b611286565b905082815260208101848484011115610c2157600080fd5b610c2c8482856114cb565b509392505050565b600081359050610c438161170f565b92915050565b600081359050610c5881611726565b92915050565b600081519050610c6d8161173d565b92915050565b60008083601f840112610c8557600080fd5b8235905067ffffffffffffffff811115610c9e57600080fd5b602083019150836001820283011115610cb657600080fd5b9250929050565b600082601f830112610cce57600080fd5b8135610cde848260208601610bf6565b91505092915050565b600081359050610cf681611754565b92915050565b600060208284031215610d0e57600080fd5b6000610d1c84828501610c34565b91505092915050565b60008060408385031215610d3857600080fd5b6000610d4685828601610c49565b9250506020610d5785828601610ce7565b9150509250929050565b600080600060408486031215610d7657600080fd5b6000610d8486828701610c34565b935050602084013567ffffffffffffffff811115610da157600080fd5b610dad86828701610c73565b92509250509250925092565b600060208284031215610dcb57600080fd5b6000610dd984828501610c5e565b91505092915050565b60008060408385031215610df557600080fd5b600083013567ffffffffffffffff811115610e0f57600080fd5b610e1b85828601610cbd565b925050602083013567ffffffffffffffff811115610e3857600080fd5b610e4485828601610cbd565b9150509250929050565b600060208284031215610e6057600080fd5b6000610e6e84828501610ce7565b91505092915050565b6000610e838383610ec1565b60208301905092915050565b6000610e9b8383611026565b905092915050565b610eac81611495565b82525050565b610ebb8161143b565b82525050565b610eca81611429565b82525050565b610ed981611429565b82525050565b6000610eea82611311565b610ef48185611364565b9350610eff836112dc565b8060005b83811015610f30578151610f178882610e77565b9750610f228361133d565b925050600181019050610f03565b5085935050505092915050565b6000610f488261131c565b610f528185611364565b9350610f5d836112ec565b8060005b83811015610f9557610f7282611660565b610f7c8882610e77565b9750610f878361134a565b925050600181019050610f61565b5085935050505092915050565b6000610fad82611327565b610fb78185611375565b935083602082028501610fc985611301565b8060005b858110156110055784840389528151610fe68582610e8f565b9450610ff183611357565b925060208a01995050600181019050610fcd565b50829750879550505050505092915050565b6110208161144d565b82525050565b600061103182611332565b61103b8185611391565b935061104b8185602086016114da565b61105481611673565b840191505092915050565b600061106c6014836113a2565b915061107782611691565b602082019050919050565b600061108f600083611386565b915061109a826116ba565b600082019050919050565b60006110b26015836113a2565b91506110bd826116bd565b602082019050919050565b60006110d56012836113a2565b91506110e0826116e6565b602082019050919050565b6110f48161148b565b82525050565b600061110582611082565b9150819050919050565b60006020820190506111246000830184610ed0565b92915050565b600060208201905061113f6000830184610eb2565b92915050565b600060608201905061115a6000830186610ed0565b6111676020830185610ea3565b61117460408301846110eb565b949350505050565b600060208201905081810360008301526111968184610edf565b905092915050565b600060408201905081810360008301526111b88185610f3d565b90506111c760208301846110eb565b9392505050565b600060208201905081810360008301526111e88184610fa2565b905092915050565b60006020820190506112056000830184611017565b92915050565b600060208201905081810360008301526112248161105f565b9050919050565b60006020820190508181036000830152611244816110a5565b9050919050565b60006020820190508181036000830152611264816110c8565b9050919050565b600060208201905061128060008301846110eb565b92915050565b60006112906112a1565b905061129c8282611559565b919050565b6000604051905090565b600067ffffffffffffffff8211156112c6576112c5611631565b5b6112cf82611673565b9050602081019050919050565b6000819050602082019050919050565b60008190508160005260206000209050919050565b6000819050602082019050919050565b600081519050919050565b600081549050919050565b600081519050919050565b600081519050919050565b6000602082019050919050565b6000600182019050919050565b6000602082019050919050565b600082825260208201905092915050565b600082825260208201905092915050565b600081905092915050565b600082825260208201905092915050565b600082825260208201905092915050565b60006113be8261148b565b91506113c98361148b565b9250827fffffffffffffffffffffffffffffffffffffffffffffffffffffffffffffffff038211156113fe576113fd6115d3565b5b828201905092915050565b600073ffffffffffffffffffffffffffffffffffffffff82169050919050565b60006114348261146b565b9050919050565b60006114468261146b565b9050919050565b60008115159050919050565b600061146482611429565b9050919050565b600073ffffffffffffffffffffffffffffffffffffffff82169050919050565b6000819050919050565b60006114a0826114a7565b9050919050565b60006114b2826114b9565b9050919050565b60006114c48261146b565b9050919050565b82818337600083830152505050565b60005b838110156114f85780820151818401526020810190506114dd565b83811115611507576000848401525b50505050565b6000600282049050600182168061152557607f821691505b6020821081141561153957611538611602565b5b50919050565b600061155261154d83611684565b611409565b9050919050565b61156282611673565b810181811067ffffffffffffffff8211171561158157611580611631565b5b80604052505050565b60006115958261148b565b91507fffffffffffffffffffffffffffffffffffffffffffffffffffffffffffffffff8214156115c8576115c76115d3565b5b600182019050919050565b7f4e487b7100000000000000000000000000000000000000000000000000000000600052601160045260246000fd5b7f4e487b7100000000000000000000000000000000000000000000000000000000600052602260045260246000fd5b7f4e487b7100000000000000000000000000000000000000000000000000000000600052604160045260246000fd5b600061166c825461153f565b9050919050565b6000601f19601f8301169050919050565b60008160001c9050919050565b7f4661696c656420746f2073656e64206574686572000000000000000000000000600082015250565b50565b7f4661696c656420746f2073656e64206569746865720000000000000000000000600082015250565b7f4e656564206d6f726520617070726f76616c0000000000000000000000000000600082015250565b61171881611429565b811461172357600080fd5b50565b61172f8161143b565b811461173a57600080fd5b50565b61174681611459565b811461175157600080fd5b50565b61175d8161148b565b811461176857600080fd5b5056fea2646970667358221220206e68989c78ff07b16a1e380090f8d993eb79dfe38f97692b84e10554afc39164736f6c63430008040033a2646970667358221220964c643433deeff4abc9a83be0e95e2a073bc4923549aa88bf15323ad9e0a62d64736f6c63430008040033",
  "immutableReferences": {},
  "source": "// SPDX-License-Identifier: MIT\npragma solidity >=0.7.0 <0.9.0;\nimport \"./Messenger.sol\";\n\ncontract User2Contract {\n\n\tstruct User{\n\t\tstring name;\n\t\tMessenger account;\n\t}\n\t\n\t// mapping(address=>Messenger) contracts;\n\t// address[] public users = [0xBA7552924a31a9614c2d0615B62409a6501d6D17,\n\t// 0x902fd7E8A8bD54bE466407065E9bA2F973664381,\n\t// 0x097dB25664f937740E02c42A42A765df449de1B7];\n\t// \"0x777181A3eF545837d48bB80067eE7006844d54cD\",\n\t// \"0x6188876C91d60b51eEC99b8B688A507e5f519369\",\n\t// \"0x9378c32f0793d184A8a52A2eB9e00DCE9C802272\",\n\t// \"0x8c0acB10fe613E52220Bf6E19f4d1CD886a2E492\",\n\t// \"0xcf6D9F08A9FA4f35A113b937a4845EaF936D7d71\",\n\t// \"0x3F6fbcDA0e19064f33757bcF4bbB43BB87d00C91\",\n\t// \"0xdc333Dd5935AED4a95D305B8b38bac587cB72f66\"];\n\n\tmapping(address=>Messenger) contracts;\n\taddress[] public users = [0x5ac5EBEAbB1aC3003e81F0F8C0c0f9F0cCbc4788,\n\t0x26eAD430951a44013b8c24546018a8b8aC915A55,\n\t0x44f9D50604DD3bd6490010D648A9d8c4dF734D62];\n\n\n// =======\n// // \tstruct User{\n// // \t\tstring name;\n// // \t\tMessenger account;\n// // \t}\n\t\n// \tmapping(address=>Messenger) contracts;\n// \taddress[] public users = [0x5D414BD62a2086f5a63bb4B2a7E109CF4f3f1269,\n// \t0x21346624FA6764762C0d215139d560A17Ea074dd,\n// \t0xfED95d4B24D55879876A34B2338ab2B621E0cce6];\n// // \t\"0x777181A3eF545837d48bB80067eE7006844d54cD\",\n// // \t\"0x6188876C91d60b51eEC99b8B688A507e5f519369\",\n// // \t\"0x9378c32f0793d184A8a52A2eB9e00DCE9C802272\",\n// // \t\"0x8c0acB10fe613E52220Bf6E19f4d1CD886a2E492\",\n// // \t\"0xcf6D9F08A9FA4f35A113b937a4845EaF936D7d71\",\n// // \t\"0x3F6fbcDA0e19064f33757bcF4bbB43BB87d00C91\",\n// // \t\"0xdc333Dd5935AED4a95D305B8b38bac587cB72f66\"];\n// >>>>>>> a959e3bfcde1610659d7d673fd5c19e5b79dcaf2\n\n\n\tfunction init() public returns(bool){\n\t\tfor(uint i=0;i<users.length;i++) {\n\t\t\tMessenger temp_mess = new Messenger(users,users.length-1);\n\t\t\t//User newUser = User()\n\t\t\tcontracts[users[i]] = temp_mess;\n\t\t}\n\t\t//require(contracts.length==users.length,false);\n\t\treturn true;\n\t\t// Messenger messenger = new Messenger(users,users.length-1);\n\t\t// return messenger;\n\t}\n\n\tfunction getMessenger(address addr) public view returns(Messenger) {\n\t\treturn contracts[addr];\n\t}\n\n}\n",
  "sourcePath": "/Users/wangruofan/defi_tutorial/src/contracts/User2Contract.sol",
  "compiler": {
    "name": "solc",
    "version": "0.8.4+commit.c7e474f2.Emscripten.clang"
  },
  "schemaVersion": "3.3.4",
  "updatedAt": "2021-04-26T21:01:54.574Z",
  "networkType": "ethereum",
  "devdoc": {
    "kind": "dev",
    "methods": {},
    "version": 1
  },
  "userdoc": {
    "kind": "user",
    "methods": {},
    "version": 1
  }
}