{
  "contractName": "User",
  "abi": [
    {
      "inputs": [
        {
          "internalType": "address",
          "name": "_cur_owners",
          "type": "address"
        },
        {
          "internalType": "uint256",
          "name": "_numOfApprov",
          "type": "uint256"
        }
      ],
      "stateMutability": "nonpayable",
      "type": "constructor"
    },
    {
      "anonymous": false,
      "inputs": [
        {
          "indexed": false,
          "internalType": "address",
          "name": "indexed_from",
          "type": "address"
        },
        {
          "indexed": false,
          "internalType": "address",
          "name": "indexed_to",
          "type": "address"
        },
        {
          "indexed": false,
          "internalType": "uint256",
          "name": "_value",
          "type": "uint256"
        }
      ],
      "name": "Transfer",
      "type": "event"
    },
    {
      "inputs": [],
      "name": "cur_owner",
      "outputs": [
        {
          "internalType": "address",
          "name": "",
          "type": "address"
        }
      ],
      "stateMutability": "view",
      "type": "function",
      "constant": true
    },
    {
      "inputs": [
        {
          "internalType": "address",
          "name": "",
          "type": "address"
        }
      ],
      "name": "isOwner",
      "outputs": [
        {
          "internalType": "bool",
          "name": "",
          "type": "bool"
        }
      ],
      "stateMutability": "view",
      "type": "function",
      "constant": true
    },
    {
      "inputs": [],
      "name": "numOfApprov",
      "outputs": [
        {
          "internalType": "uint256",
          "name": "",
          "type": "uint256"
        }
      ],
      "stateMutability": "view",
      "type": "function",
      "constant": true
    },
    {
      "inputs": [],
      "name": "getMessages",
      "outputs": [
        {
          "internalType": "string[]",
          "name": "",
          "type": "string[]"
        }
      ],
      "stateMutability": "view",
      "type": "function",
      "constant": true
    },
    {
      "inputs": [],
      "name": "getOwner",
      "outputs": [
        {
          "internalType": "address",
          "name": "",
          "type": "address"
        }
      ],
      "stateMutability": "view",
      "type": "function",
      "constant": true
    },
    {
      "inputs": [
        {
          "internalType": "address",
          "name": "_recipient",
          "type": "address"
        },
        {
          "internalType": "string",
          "name": "_message",
          "type": "string"
        }
      ],
      "name": "sendMessage",
      "outputs": [],
      "stateMutability": "nonpayable",
      "type": "function"
    },
    {
      "inputs": [],
      "name": "readMessage",
      "outputs": [],
      "stateMutability": "nonpayable",
      "type": "function"
    },
    {
      "inputs": [],
      "name": "getContractAddress",
      "outputs": [
        {
          "internalType": "address",
          "name": "",
          "type": "address"
        }
      ],
      "stateMutability": "view",
      "type": "function",
      "constant": true
    },
    {
      "inputs": [],
      "name": "deposit",
      "outputs": [],
      "stateMutability": "payable",
      "type": "function",
      "payable": true
    },
    {
      "inputs": [],
      "name": "withdraw",
      "outputs": [],
      "stateMutability": "nonpayable",
      "type": "function"
    },
    {
      "inputs": [
        {
          "internalType": "address payable",
          "name": "_to",
          "type": "address"
        }
      ],
      "name": "sendViaTransfer",
      "outputs": [],
      "stateMutability": "payable",
      "type": "function",
      "payable": true
    },
    {
      "inputs": [],
      "name": "getBalance",
      "outputs": [
        {
          "internalType": "uint256",
          "name": "",
          "type": "uint256"
        }
      ],
      "stateMutability": "view",
      "type": "function",
      "constant": true
    },
    {
      "inputs": [
        {
          "internalType": "string",
          "name": "a",
          "type": "string"
        },
        {
          "internalType": "string",
          "name": "b",
          "type": "string"
        }
      ],
      "name": "compareTo",
      "outputs": [
        {
          "internalType": "bool",
          "name": "",
          "type": "bool"
        }
      ],
      "stateMutability": "pure",
      "type": "function",
      "constant": true
    },
    {
      "inputs": [
        {
          "internalType": "address payable",
          "name": "_to",
          "type": "address"
        },
        {
          "internalType": "uint256",
          "name": "_amount",
          "type": "uint256"
        }
      ],
      "name": "transfer",
      "outputs": [],
      "stateMutability": "nonpayable",
      "type": "function"
    }
  ],
  "bytecode": "0x60806040523480156200001157600080fd5b5060405162001415380380620014158339818101604052810190620000379190620000b4565b816000806101000a81548173ffffffffffffffffffffffffffffffffffffffff021916908373ffffffffffffffffffffffffffffffffffffffff16021790555080600681905550505062000167565b600081519050620000978162000133565b92915050565b600081519050620000ae816200014d565b92915050565b60008060408385031215620000c857600080fd5b6000620000d88582860162000086565b9250506020620000eb858286016200009d565b9150509250929050565b6000620001028262000109565b9050919050565b600073ffffffffffffffffffffffffffffffffffffffff82169050919050565b6000819050919050565b6200013e81620000f5565b81146200014a57600080fd5b50565b620001588162000129565b81146200016457600080fd5b50565b61129e80620001776000396000f3fe6080604052600436106100dd5760003560e01c806364da25c71161007f578063a9059cbb11610059578063a9059cbb1461027d578063d0e30db0146102a6578063de6f24bb146102b0578063fc57f987146102d9576100dd565b806364da25c7146101ea5780637d1a6e3f14610215578063893d20e814610252576100dd565b806332a2c5d0116100bb57806332a2c5d0146101615780633ccfd60b1461018c5780635ff6cbf3146101a3578063636e082b146101ce576100dd565b8063031d5d01146100e257806312065fe0146100f95780632f54bf6e14610124575b600080fd5b3480156100ee57600080fd5b506100f7610304565b005b34801561010557600080fd5b5061010e6104d9565b60405161011b9190610e7a565b60405180910390f35b34801561013057600080fd5b5061014b60048036038101906101469190610add565b6104f8565b6040516101589190610e1f565b60405180910390f35b34801561016d57600080fd5b50610176610518565b6040516101839190610dab565b60405180910390f35b34801561019857600080fd5b506101a1610520565b005b3480156101af57600080fd5b506101b861060d565b6040516101c59190610dfd565b60405180910390f35b6101e860048036038101906101e39190610b06565b610723565b005b3480156101f657600080fd5b506101ff61076d565b60405161020c9190610e7a565b60405180910390f35b34801561022157600080fd5b5061023c60048036038101906102379190610bc3565b610773565b6040516102499190610e1f565b60405180910390f35b34801561025e57600080fd5b5061026761078e565b6040516102749190610dab565b60405180910390f35b34801561028957600080fd5b506102a4600480360381019061029f9190610b2f565b6107b7565b005b6102ae6108a3565b005b3480156102bc57600080fd5b506102d760048036038101906102d29190610b6b565b6108a5565b005b3480156102e557600080fd5b506102ee610925565b6040516102fb9190610dab565b60405180910390f35b6000600260003373ffffffffffffffffffffffffffffffffffffffff1673ffffffffffffffffffffffffffffffffffffffff168152602001908152602001600020805480602002602001604051908101604052809291908181526020016000905b8282101561041157838290600052602060002001805461038490611084565b80601f01602080910402602001604051908101604052809291908181526020018280546103b090611084565b80156103fd5780601f106103d2576101008083540402835291602001916103fd565b820191906000526020600020905b8154815290600101906020018083116103e057829003601f168201915b505050505081526020019060010190610365565b50505050905060005b81518110156104d5576104a282828151811061045f577f4e487b7100000000000000000000000000000000000000000000000000000000600052603260045260246000fd5b60200260200101516040518060400160405280600781526020017f7265636f76657200000000000000000000000000000000000000000000000000815250610773565b156104c2576001600360008282546104ba9190610f5c565b925050819055505b80806104cd906110e7565b91505061041a565b5050565b60003073ffffffffffffffffffffffffffffffffffffffff1631905090565b60016020528060005260406000206000915054906101000a900460ff1681565b600030905090565b60003073ffffffffffffffffffffffffffffffffffffffff1631905060008060009054906101000a900473ffffffffffffffffffffffffffffffffffffffff1673ffffffffffffffffffffffffffffffffffffffff168260405161058390610d96565b60006040518083038185875af1925050503d80600081146105c0576040519150601f19603f3d011682016040523d82523d6000602084013e6105c5565b606091505b5050905080610609576040517f08c379a000000000000000000000000000000000000000000000000000000000815260040161060090610e3a565b60405180910390fd5b5050565b6060600260003073ffffffffffffffffffffffffffffffffffffffff1673ffffffffffffffffffffffffffffffffffffffff168152602001908152602001600020805480602002602001604051908101604052809291908181526020016000905b8282101561071a57838290600052602060002001805461068d90611084565b80601f01602080910402602001604051908101604052809291908181526020018280546106b990611084565b80156107065780601f106106db57610100808354040283529160200191610706565b820191906000526020600020905b8154815290600101906020018083116106e957829003601f168201915b50505050508152602001906001019061066e565b50505050905090565b8073ffffffffffffffffffffffffffffffffffffffff166108fc349081150290604051600060405180830381858888f19350505050158015610769573d6000803e3d6000fd5b5050565b60065481565b60008180519060200120838051906020012014905092915050565b60008060009054906101000a900473ffffffffffffffffffffffffffffffffffffffff16905090565b7fddf252ad1be2c89b69c2b068fc378daa952ba7f163c4a11628f55a4df523b3ef3383836040516107ea93929190610dc6565b60405180910390a160008273ffffffffffffffffffffffffffffffffffffffff168260405161081890610d96565b60006040518083038185875af1925050503d8060008114610855576040519150601f19603f3d011682016040523d82523d6000602084013e61085a565b606091505b505090508061089e576040517f08c379a000000000000000000000000000000000000000000000000000000000815260040161089590610e5a565b60405180910390fd5b505050565b565b600260008473ffffffffffffffffffffffffffffffffffffffff1673ffffffffffffffffffffffffffffffffffffffff16815260200190815260200160002082829091806001815401808255809150506001900390600052602060002001600090919290919290919290919250919061091f929190610949565b50505050565b60008054906101000a900473ffffffffffffffffffffffffffffffffffffffff1681565b82805461095590611084565b90600052602060002090601f01602090048101928261097757600085556109be565b82601f1061099057803560ff19168380011785556109be565b828001600101855582156109be579182015b828111156109bd5782358255916020019190600101906109a2565b5b5090506109cb91906109cf565b5090565b5b808211156109e85760008160009055506001016109d0565b5090565b60006109ff6109fa84610eba565b610e95565b905082815260208101848484011115610a1757600080fd5b610a22848285611042565b509392505050565b600081359050610a3981611223565b92915050565b600081359050610a4e8161123a565b92915050565b60008083601f840112610a6657600080fd5b8235905067ffffffffffffffff811115610a7f57600080fd5b602083019150836001820283011115610a9757600080fd5b9250929050565b600082601f830112610aaf57600080fd5b8135610abf8482602086016109ec565b91505092915050565b600081359050610ad781611251565b92915050565b600060208284031215610aef57600080fd5b6000610afd84828501610a2a565b91505092915050565b600060208284031215610b1857600080fd5b6000610b2684828501610a3f565b91505092915050565b60008060408385031215610b4257600080fd5b6000610b5085828601610a3f565b9250506020610b6185828601610ac8565b9150509250929050565b600080600060408486031215610b8057600080fd5b6000610b8e86828701610a2a565b935050602084013567ffffffffffffffff811115610bab57600080fd5b610bb786828701610a54565b92509250509250925092565b60008060408385031215610bd657600080fd5b600083013567ffffffffffffffff811115610bf057600080fd5b610bfc85828601610a9e565b925050602083013567ffffffffffffffff811115610c1957600080fd5b610c2585828601610a9e565b9150509250929050565b6000610c3b8383610ce5565b905092915050565b610c4c8161100c565b82525050565b610c5b81610fb2565b82525050565b6000610c6c82610efb565b610c768185610f1e565b935083602082028501610c8885610eeb565b8060005b85811015610cc45784840389528151610ca58582610c2f565b9450610cb083610f11565b925060208a01995050600181019050610c8c565b50829750879550505050505092915050565b610cdf81610fd6565b82525050565b6000610cf082610f06565b610cfa8185610f3a565b9350610d0a818560208601611051565b610d13816111bd565b840191505092915050565b6000610d2b601483610f4b565b9150610d36826111ce565b602082019050919050565b6000610d4e600083610f2f565b9150610d59826111f7565b600082019050919050565b6000610d71601583610f4b565b9150610d7c826111fa565b602082019050919050565b610d9081611002565b82525050565b6000610da182610d41565b9150819050919050565b6000602082019050610dc06000830184610c52565b92915050565b6000606082019050610ddb6000830186610c52565b610de86020830185610c43565b610df56040830184610d87565b949350505050565b60006020820190508181036000830152610e178184610c61565b905092915050565b6000602082019050610e346000830184610cd6565b92915050565b60006020820190508181036000830152610e5381610d1e565b9050919050565b60006020820190508181036000830152610e7381610d64565b9050919050565b6000602082019050610e8f6000830184610d87565b92915050565b6000610e9f610eb0565b9050610eab82826110b6565b919050565b6000604051905090565b600067ffffffffffffffff821115610ed557610ed461118e565b5b610ede826111bd565b9050602081019050919050565b6000819050602082019050919050565b600081519050919050565b600081519050919050565b6000602082019050919050565b600082825260208201905092915050565b600081905092915050565b600082825260208201905092915050565b600082825260208201905092915050565b6000610f6782611002565b9150610f7283611002565b9250827fffffffffffffffffffffffffffffffffffffffffffffffffffffffffffffffff03821115610fa757610fa6611130565b5b828201905092915050565b6000610fbd82610fe2565b9050919050565b6000610fcf82610fe2565b9050919050565b60008115159050919050565b600073ffffffffffffffffffffffffffffffffffffffff82169050919050565b6000819050919050565b60006110178261101e565b9050919050565b600061102982611030565b9050919050565b600061103b82610fe2565b9050919050565b82818337600083830152505050565b60005b8381101561106f578082015181840152602081019050611054565b8381111561107e576000848401525b50505050565b6000600282049050600182168061109c57607f821691505b602082108114156110b0576110af61115f565b5b50919050565b6110bf826111bd565b810181811067ffffffffffffffff821117156110de576110dd61118e565b5b80604052505050565b60006110f282611002565b91507fffffffffffffffffffffffffffffffffffffffffffffffffffffffffffffffff82141561112557611124611130565b5b600182019050919050565b7f4e487b7100000000000000000000000000000000000000000000000000000000600052601160045260246000fd5b7f4e487b7100000000000000000000000000000000000000000000000000000000600052602260045260246000fd5b7f4e487b7100000000000000000000000000000000000000000000000000000000600052604160045260246000fd5b6000601f19601f8301169050919050565b7f4661696c656420746f2073656e64206574686572000000000000000000000000600082015250565b50565b7f4661696c656420746f2073656e64206569746865720000000000000000000000600082015250565b61122c81610fb2565b811461123757600080fd5b50565b61124381610fc4565b811461124e57600080fd5b50565b61125a81611002565b811461126557600080fd5b5056fea2646970667358221220797610ff652406243a3a98d19dbd9faf3b53229fdc49a2f9273b6586a5e9f27464736f6c63430008040033",
  "immutableReferences": {},
  "source": "// SPDX-License-Identifier: MIT\npragma solidity >=0.7.0 <0.9.0;\npragma experimental ABIEncoderV2;\nimport \"./Messenger.sol\";\n\ncontract User {\n //   address[] public owners;\n    address public cur_owner;\n   // address contract;\n    mapping(address=>bool) public isOwner;\n    mapping(address => string[]) messages;\n    uint cur_approval;\n    mapping(address => uint256) balances;\n    mapping(address=>string) users;\n    uint public numOfApprov;\n    RecoverTools tool;\n    \n    // struct Transaction {\n    //     address to;\n    //     uint value;\n    //     bytes data;\n    //     bool executed;\n    //     uint numOfApprov;\n    // }\n    \n    // Transaction[] public transcations;\n    \n    modifier onlyOwner() {\n        require(isOwner[msg.sender],\"not owner\");\n        _;\n    }\n\n\n    \n    constructor(address _cur_owners, uint _numOfApprov) {\n        // require(_owners.length>0,'need some users');\n        // require(\n        //     _numOfApprov>0 && _numOfApprov<=_owners.length,\n        //     'need valid number of approval'\n        // );\n        // for(uint i=0;i<_owners.length;i++) {\n        //     address owner = _owners[i];\n            \n        //     require(owner!=address(0),'invalid owner');\n        //     require(!isOwner[owner],'owner not unique');\n        //     //tool=new RecoverTools();\n        //     isOwner[owner] = true;\n        //     cur_owner = payable(msg.sender);\n        //     owners.push(owner);\n            \n        // }\n        cur_owner = _cur_owners;\n        numOfApprov = _numOfApprov;\n    }\n    \n    // function getOwners() public view returns (address[] memory) {\n    //     return owners;\n    // }\n    \n    function getMessages() public view returns(string[] memory) {\n        return messages[address(this)];\n    }\n\n    function getOwner() public view returns(address) {\n    \treturn cur_owner;\n    }\n    \n    // function SignUp() public {\n        \n    // }\n    \n    // function SignIn(address addr, string memory username) public {\n        \n    // }\n    \n    function sendMessage(address _recipient, string calldata _message) public {\n        messages[_recipient].push(_message);\n    }\n    \n    function readMessage() public {\n        string[] memory message = messages[msg.sender];\n        for(uint i=0;i<message.length;i++) {\n            if(compareTo(message[i],\"recover\")) {\n                cur_approval+=1;\n            }\n        }\n    }\n    \n    \n    function getContractAddress() public view returns (address) {\n        return address(this);\n    }\n    \n    function deposit() public payable {\n        \n    }\n    \n    function withdraw() public {\n        uint amount = address(this).balance;\n        \n        (bool success,) = cur_owner.call{value:amount}(\"\");\n        require(success,\"Failed to send ether\");\n    }\n\n    function sendViaTransfer(address payable _to) public payable {\n        // This function is no longer recommended for sending Ether.\n        _to.transfer(msg.value);\n    }\n    \n    function getBalance() public view returns (uint) {\n        return address(this).balance;\n    }\n\n    //function balanceOf() public \n\n    // function recover() public returns(address){\n    //     readMessage();\n    //     require(cur_approval==numOfApprov,'Need more approval');\n    //    // RecoverTools tool = new RecoverTools();\n    //     Messenger new_owner = tool.recover(owners,numOfApprov);\n    //     transfer(payable(address(new_owner)),balances[address(this)]);\n    //     return address(new_owner);\n    // }\n    \n    function compareTo(string memory a, string memory b) public pure returns(bool) {\n        return keccak256(bytes(a)) == keccak256(bytes(b));\n    }\n    event Transfer(address indexed_from, address indexed_to, uint _value);\n\n    function transfer(address payable _to, uint _amount) public {\n        emit Transfer(msg.sender,_to,_amount);\n        (bool success,) = _to.call{value:_amount}(\"\");\n        require(success,\"Failed to send either\");\n    }\n    \n    \n}\n\n// contract RecoverTools {\n    \n//     function recover(address[] memory owners, uint numOfApprov) public returns(Messenger) {\n//         Messenger n_contract = new Messenger(owners,numOfApprov);\n//         return n_contract;\n//     }\n// }",
  "sourcePath": "/Users/wangruofan/defi_tutorial/src/contracts/User.sol",
  "compiler": {
    "name": "solc",
    "version": "0.8.4+commit.c7e474f2.Emscripten.clang"
  },
  "schemaVersion": "3.3.4",
  "updatedAt": "2021-04-27T16:53:54.218Z",
  "networkType": "ethereum",
  "devdoc": {
    "kind": "dev",
    "methods": {},
    "version": 1
  },
  "userdoc": {
    "kind": "user",
    "methods": {},
    "version": 1
  }
}